:020000040800F2
:100000000000022035150008C5110008CD110008B8
:10001000D5110008DD110008E511000800000000FE
:10002000000000000000000000000000ED110008CA
:10003000FB11000800000000091200081712000858
:100040008515000885150008851500088515000828
:100050008515000885150008851500088515000818
:100060008515000885150008851500088515000808
:1000700085150008851500088515000885150008F8
:1000800085150008851500088515000885150008E8
:1000900085150008851500088515000885150008D8
:1000A00085150008851500088515000885150008C8
:1000B000251200088515000839120008851500086A
:1000C00085150008851500088515000885150008A8
:1000D000851500084D1200088515000885150008D3
:1000E0008515000885150008851500088515000888
:1000F0008515000885150008851500088515000878
:100100008515000885150008851500088515000867
:100110008515000885150008851500088515000857
:100120008515000885150008851500088515000847
:100130008515000885150008851500088515000837
:100140008515000885150008851500088515000827
:100150008515000885150008851500088515000817
:100160008515000885150008851500088515000807
:100170008515000885150008851500080000000099
:08018000851500088515000833
:1001880010B5054C237833B9044B13B10448AFF3C9
:1001980000800123237010BD14000020000000001F
:1001A800E847000808B5034B1BB103490348AFF300
:1001B800008008BD0000000018000020E847000883
:1001C80053B94AB9002908BF00281CBF4FF0FF31B6
:1001D8004FF0FF3000F06AB9ADF1080C6DE904CEBC
:1001E80000F006F8DDF804E0DDE9022304B070470A
:1001F8002DE9F047089D0C46002B4ED194468C45BE
:100208008646B2FA82F262D94AB1C2F1200391401D
:1002180020FA03F30CFA02FC194300FA02FE4FEA33
:100228001C471FFA8CF6B1FBF7F44FEA1E4307FB95
:10023800141143EA014304FB06F199420AD91CEB65
:10024800030304F1FF3080F01281994240F20F81DC
:10025800023C6344591A1FFA8EF3B1FBF7F007FB0F
:10026800101143EA014300FB06F69E420AD91CEB33
:10027800030300F1FF3180F0FC809E4240F2F980D8
:10028800634402389B1B40EA044000211DB1D3405F
:100298000022C5E90032BDE8F0878B4205D90DB1CF
:1002A800C5E9000100210846F5E7B3FA83F1002902
:1002B80046D1A34202D39042C0F0F080861A64EB84
:1002C80003030120002DE6D0C5E90063E3E7002A17
:1002D80040F09080A1EB0C044FEA1C481FFA8CF701
:1002E8000121B4FBF8F64FEA1E4308FB164443EA23
:1002F800044307FB06F0984208D91CEB030306F1F8
:10030800FF3402D2984200F2CD8026461C1A1FFA0A
:100318008EF3B4FBF8F008FB104443EA044300FBF7
:1003280007F79F4208D91CEB030300F1FF3402D200
:100338009F4200F2B0802046DB1B40EA0640A5E75A
:10034800C1F120068B4022FA06F71F4320FA06FC6B
:1003580004FA01F343EA0C03F44000FA01F8380CFC
:100368004FEA1349B4FBF0FE1FFA87FC00FB1E445A
:1003780049EA04440EFB0CF9A14502FA01F20AD934
:100388003C190EF1FF3A80F08480A14540F281804B
:10039800AEF1020E3C44A4EB09041FFA83F9B4FB46
:1003A800F0F300FB134449EA044403FB0CFCA445A6
:1003B80007D93C1903F1FF3067D2A44565D9023B40
:1003C8003C4443EA0E40A0FB0293A4EB0C049C427D
:1003D800CE469C4651D34ED055B1B8EB0E0364EBD4
:1003E8000C0404FA06F6CB401E43CC40C5E9006471
:1003F800002150E7C2F1200320FA03F10CFA02FCB5
:1004080024FA03F394400C434FEA1C4800FA02FE16
:100418001FFA8CF7B3FBF8F008FB1031230C43EA02
:10042800014300FB07F1994208D91CEB030300F1D3
:10043800FF362CD299422AD9023863445B1AA4B2F7
:10044800B3FBF8F108FB113344EA034401FB07F35B
:10045800A34208D91CEB040401F1FF3613D2A342CE
:1004680011D902396444E41A41EA004139E70446E3
:10047800F0E6084606E7C845AED2B9EB020E63EBD4
:10048800070C0138A8E73146EDE7034699E73046FF
:10049800D4E7D6467FE7634402384DE7064623464D
:1004A80008460FE7023E634430E700BF704700BFCD
:1004B80080B500AF01220821024801F037FC00BFD7
:1004C80080BD00BF000C024080B58EB000AF07F1C0
:1004D8001C0300221A605A609A60DA601A615A6135
:1004E8009A613B4600221A605A609A60DA601A6183
:1004F8005A619A612F4B4FF020421A602D4B2E4AB9
:100508005A602C4B00229A602A4B0022DA60294B51
:1005180000221A61274B10225A61264B00229A6149
:10052800244B0022DA61234B00221A62214B00225D
:100538005A62204B4FF480529A621E4B0022DA62B4
:100548001C4B4FF480421A631A4B00225A63194B12
:1005580000229A63174B00225A640F23FB610F2372
:100568003B623C237B620023BB621023FB621123A6
:100578003B6300237B6308233B600F237B600923D5
:10058800BB600023FB6010233B6111237B610023C8
:10059800BB613A4607F11C031946064802F040FCC5
:1005A8000346002B01D000F0B1FC00BF3837BD4630
:1005B80080BD00BF30000020040100A080B586B0D7
:1005C80000AF3B1D00221A605A609A60DA601A6117
:1005D8001C4B1B68002B31D11A4B01221A600023D7
:1005E8003B60194B9B6B184A43F001039363164B0E
:1005F8009B6B03F001033B603B684FF688737B609D
:100608000223BB600023FB6003233B610C237B6157
:100618003B1D19460D4801F0EDF94CF2B3737B60B0
:100628000223BB600023FB6003233B610C237B6137
:100638003B1D1946064801F0DDF900E000BF1837F8
:10064800BD4680BD800000200038024000100240F6
:10065800000C024080B582B000AF7860FFF7AEFFB3
:1006680000BF0837BD4680BD80B58CB000AF07F12C
:100678001C0300221A605A609A60DA601A6100232B
:10068800BB61634B1B6B624A43F010031363604BFF
:100698001B6B03F01003BB61BB6900237B615C4BE0
:1006A8001B6B5B4A43F004031363594B1B6B03F04A
:1006B80004037B617B6900233B61554B1B6B544AE8
:1006C80043F080031363524B1B6B03F080033B61C1
:1006D8003B690023FB604E4B1B6B4D4A43F00803FC
:1006E80013634B4B1B6B03F00803FB60FB68002391
:1006F800BB60474B1B6B464A43F040031363444BB4
:100708001B6B03F04003BB60BB6800237B60404B5E
:100718001B6B3F4A43F0010313633D4B1B6B03F014
:1007280001037B607B6800233B60394B1B6B384AB5
:1007380043F002031363364B1B6B03F002033B6069
:100748003B6800227021334801F0F0FA00224FF490
:100758000051314801F0EAFA002240212F4801F007
:10076800E5FA00224FF480712D4801F0DFFA0022EB
:1007780008212C4801F0DAFA7023FB6101233B625F
:1007880000237B620023BB6207F11C031946214842
:1007980001F030F94FF40053FB6101233B62002361
:1007A8007B620023BB6207F11C0319461A4801F05B
:1007B80021F94023FB6101233B6200237B62002374
:1007C800BB6207F11C031946144801F013F94FF4F2
:1007D8008073FB6101233B6200237B620023BB62C1
:1007E80007F11C0319460E4801F004F90823FB61C0
:1007F80001233B6200237B620023BB6207F11C03D9
:100808001946084801F0F6F800BF3037BD4680BDEC
:100818000038024000100240000802400018024060
:1008280000000240000C024080B500AF124B134A92
:100838001A60114B124A5A600F4B00229A600E4BF5
:100848000022DA600C4B4FF480421A610A4B0022F6
:100858005A61094B00229A61074B0022DA61064B64
:1008680000221A62044801F095FA0346002B01D0D1
:1008780000F04CFB00BF80BD840000200054004005
:10088800A086010080B58AB000AF786007F1140334
:1008980000221A605A609A60DA601A617B681B68E5
:1008A800194A93422BD100233B61184B1B6B174A03
:1008B80043F002031363154B1B6B03F002033B6108
:1008C8003B69C0237B611223BB610023FB610323C7
:1008D8003B6204237B6207F1140319460C4801F0BC
:1008E80089F80023FB60094B1B6C084A43F400138A
:1008F8001364064B1B6C03F40013FB60FB6800BF1A
:100908002837BD4680BD00BF005400400038024073
:100918000004024080B483B000AF0346FB80044A61
:10092800FB88138000BF0C37BD465DF8047B704719
:10093800FEFF0F6080B483B000AF0346FB80044A1B
:10094800FB88538000BF0C37BD465DF8047B7047B9
:10095800FEFF0F6080B483B000AF064B5B889BB28C
:10096800FB80FB889BB218460C37BD465DF8047BBC
:10097800704700BFFEFF0F6080B483B000AF03462E
:10098800FB71FB791B09DBB203F00303DBB2002B1D
:1009980007D00A4B4FF4A0721A80084BF0225A80F5
:1009A80006E0064BF0221A80044B4FF4A0725A80DE
:1009B80000BF0C37BD465DF8047B7047D8000020A7
:1009C80080B500AF00224FF40051AA4801F0AEF9FB
:1009D8004FF4FA7000F046FE01224FF40051A5488A
:1009E80001F0A4F94FF4FA7000F03CFE0020FFF784
:1009F800C3FFD320FFF78EFFFFF7ACFF03461A466D
:100A08009D4B9A80FFF7A6FF03461A469A4B9A8099
:100A1800FFF7A0FF03461A46974B9A80964B9B8890
:100A28001B029AB2944B9A80FFF794FF03461A462A
:100A3800914B9B8813439AB28F4B9A80CF20FFF734
:100A480069FF0020FFF776FFC120FFF773FF302012
:100A5800FFF770FFED20FFF75DFF6420FFF76AFFE7
:100A68000320FFF767FF1220FFF764FF8120FFF7DD
:100A780061FFE820FFF74EFF8520FFF75BFF10209E
:100A8800FFF758FF7A20FFF755FFCB20FFF742FF0B
:100A98003920FFF74FFF2C20FFF74CFF0020FFF70E
:100AA80049FF3420FFF746FF0220FFF743FFF720F6
:100AB800FFF730FF2020FFF73DFFEA20FFF72AFF6E
:100AC8000020FFF737FF0020FFF734FFC020FFF7B3
:100AD80021FF1B20FFF72EFFC120FFF71BFF01207E
:100AE800FFF728FFC520FFF715FF3020FFF722FF8B
:100AF8003020FFF71FFFC720FFF70CFFB720FFF7D5
:100B080019FF3620FFF706FF0820FFF713FF3A20EA
:100B1800FFF700FF5520FFF70DFFB120FFF7FAFEA2
:100B28000020FFF707FF1A20FFF704FFB620FFF7A2
:100B3800F1FE0A20FFF7FEFEA220FFF7FBFEF220DF
:100B4800FFF7E8FE0020FFF7F5FE2620FFF7E2FE9C
:100B58000120FFF7EFFEE020FFF7DCFE0F20FFF794
:100B6800E9FE2A20FFF7E6FE2820FFF7E3FE08202B
:100B7800FFF7E0FE0E20FFF7DDFE0820FFF7DAFEA4
:100B88005420FFF7D7FEA920FFF7D4FE4320FFF734
:100B9800D1FE0A20FFF7CEFE0F20FFF7CBFE002084
:100BA800FFF7C8FE0020FFF7C5FE0020FFF7C2FED2
:100BB8000020FFF7BFFEE120FFF7ACFE0020FFF7A3
:100BC800B9FE1520FFF7B6FE1720FFF7B3FE072082
:100BD800FFF7B0FE1120FFF7ADFE0620FFF7AAFED3
:100BE8002B20FFF7A7FE5620FFF7A4FE3C20FFF7B7
:100BF800A1FE0520FFF79EFE1020FFF79BFE0F20A9
:100C0800FFF798FE3F20FFF795FE3F20FFF792FE83
:100C18000F20FFF78FFE2B20FFF77CFE0020FFF749
:100C280089FE0020FFF786FE0120FFF783FE3F20A4
:100C3800FFF780FE2A20FFF76DFE0020FFF77AFEFF
:100C48000020FFF777FE0020FFF774FEEF20FFF784
:100C580071FE1120FFF75EFE782000F003FD2920C9
:100C6800FFF758FE01224FF48071044801F05EF846
:100C780000BF80BD00080240D800002000000240EC
:100C880080B500AF01224021024801F04FF800BFB3
:100C980080BD00BF0018024080B500AF3F4B1B88E5
:100CA800DBB29AB23D4B1A803D4B1B881A463D4B2E
:100CB8009B5C1B021AB2394B1B881BB213431BB235
:100CC8009AB2364B1A80364B1B88032B46D801A2A2
:100CD80052F823F0ED0C00080B0D0008290D000850
:100CE800470D00082D4B1B8843F0B0039AB22B4BDD
:100CF8001A802A4B1B8823F040039AB2274B1A808C
:100D08002DE0264B1B8843F0D0039AB2234B1A8060
:100D1800224B1B8823F020039AB2204B1A801EE036
:100D28001E4B1B8843F0E0039AB21C4B1A801B4BE6
:100D38001B8823F010039AB2184B1A800FE0174B48
:100D48001B8843F070039AB2144B1A80134B1B880C
:100D580023F080039AB2114B1A8000E000BF104BB9
:100D68001B8801335A4203F0030302F0030258BF01
:100D780053429AB20A4B1A80002240210A4800F0D6
:100D8800D5FF012302220549084801F028FE012267
:100D98004021054800F0CAFF00BF80BD04000020C4
:100DA800DE0000200000002000180240EC000020B7
:100DB80080B500AF00F0E4FB00F024F8FFF754FC26
:100DC80000F05CFA00F054F9FFF77EFBFFF72CFD0A
:100DD80000F032FB00F09EFA00F08AF84FF47A71C6
:100DE8004FF47A7000F0CAF84FF4FA71002000F05E
:100DF800A7F800F0E1F80346002BFAD000F06CF8F1
:100E0800F7E7000080B594B000AF07F12003302267
:100E18000021184603F0B8FC07F10C0300221A6001
:100E28005A609A60DA601A610023BB60284B1B6C19
:100E3800274A43F080531364254B1B6C03F08053FF
:100E4800BB60BB6800237B60224B1B68214A43F4CC
:100E5800804313601F4B1B6803F480437B607B68EF
:100E680002233B620123FB6210233B630223BB6323
:100E78000023FB6308233B64A8237B640223BB6431
:100E88000423FB6407F12003184601F0C7F8034662
:100E9800002B01D000F03AF80F23FB6002233B61DE
:100EA80000237B614FF4A053BB614FF4A053FB6157
:100EB80007F10C030521184601F028FB0346002B17
:100EC80001D000F023F800BF5037BD4680BD00BFF9
:100ED800003802400070004080B500AF1021034880
:100EE80000F03DFF0123184680BD00BF00100240FE
:100EF80080B500AF00F010F800F018F8FFF7C0FE5A
:100F0800FFF7D6FAFFF75CFD00BF80BD80B400AFE5
:100F180072B600BF00BFFDE780B500AF024802F01F
:100F280017F800BF80BD00BF4401002080B500AFA6
:100F3800024802F00DF800BF80BD00BF8C01002000
:100F480080B483B000AF03460A46FB801346BB80DB
:100F5800074ABB881380074AFB881380064B002288
:100F68001A7000BF0C37BD465DF8047B704700BFA0
:100F7800E4000020E2000020E000002080B483B0FC
:100F880000AF03460A46FB801346BB80074ABB886E
:100F98001380074AFB881380064B00221A7000BF93
:100FA8000C37BD465DF8047B704700BFEA0000209F
:100FB800E8000020E600002080B400AF094B1B7851
:100FC800002B08D0074B00221A70074B1A88074BD2
:100FD8001A80012300E000231846BD465DF8047B13
:100FE800704700BFE0000020E4000020E20000207D
:100FF80080B582B000AF78607B681B68B3F1804F22
:1010080010D1164B1B88002B05D0144B1B88013BB5
:101018009AB2124B1A80114B1B88002B02D1104B2D
:1010280001221A707B681B680E4A934212D10E4B3C
:101038001B88002B05D00C4B1B88013B9AB20A4B2E
:101048001A80094B1B88002B02D1084B01221A7009
:10105800FFF722FE00BF0837BD4680BDE200002032
:10106800E000002000080040E8000020E600002022
:1010780080B500AF174B184A1A60164B4FF48272AE
:101088005A60144B00229A60124B0022DA60114B0E
:1010980000221A610F4B00225A610E4B4FF4007266
:1010A8009A610C4B0022DA610A4B00221A62094B42
:1010B80000225A62074B00229A62064B0A22DA6221
:1010C800044801F003FC0346002B01D0FFF71EFF84
:1010D80000BF80BDEC0000200030014080B58AB020
:1010E80000AF786007F1140300221A605A609A6012
:1010F800DA601A617B681B68194A93422BD1002376
:101108003B61184B5B6C174A43F480535364154B8F
:101118005B6C03F480533B613B690023FB60114B1C
:101128001B6B104A43F0020313630E4B1B6B03F057
:101138000203FB60FB6838237B610223BB61002349
:10114800FB6103233B6205237B6207F11403194605
:10115800054800F04FFC00BF2837BD4680BD00BFE2
:1011680000300140003802400004024080B483B0DF
:1011780000AF00237B60104B5B6C0F4A43F4804345
:1011880053640D4B5B6C03F480437B607B680023E6
:101198003B60094B1B6C084A43F080531364064BB1
:1011A8001B6C03F080533B603B6800BF0C37BD46A7
:1011B8005DF8047B704700BF0038024080B400AF80
:1011C80000BFFDE780B400AF00BFFDE780B400AF0B
:1011D80000BFFDE780B400AF00BFFDE780B400AFFB
:1011E80000BFFDE780B400AF00BFBD465DF8047BDB
:1011F800704780B400AF00BFBD465DF8047B704700
:1012080080B400AF00BFBD465DF8047B704780B571
:1012180000AF00F007FA00BF80BD000080B500AF46
:10122800024801F005FF00BF80BD00BF4401002057
:1012380080B500AF024801F0FBFE00BF80BD00BFD3
:101248008C01002080B500AF024802F0F7FA00BF19
:1012580080BD00BFD401002080B400AF064BD3F896
:101268008830054A43F47003C2F8883000BFBD4691
:101278005DF8047B704700BF00ED00E080B586B0E4
:1012880000AF07F1080300221A605A609A60DA601A
:101298003B4600221A605A601D4B4FF080421A608C
:1012A8001B4B42F2CF025A60194B00229A60184B2E
:1012B8000922DA60164B00221A61154B00229A6146
:1012C800134801F0F5FD0346002B01D0FFF71EFE81
:1012D8004FF48053BB6007F1080319460C4801F02E
:1012E80097FF0346002B01D0FFF710FE00233B6059
:1012F80000237B603B461946054802F0BFF90346C8
:10130800002B01D0FFF702FE00BF1837BD4680BD95
:101318004401002080B586B000AF07F10803002221
:101328001A605A609A60DA603B4600221A605A6076
:101338001D4B1E4A1A601C4B42F2CF025A601A4BD0
:1013480000229A60184B0922DA60174B00221A61B2
:10135800154B00229A61144801F0AAFD0346002BA0
:1013680001D0FFF7D3FD4FF48053BB6007F10803AA
:1013780019460D4801F04CFF0346002B01D0FFF73A
:10138800C5FD00233B6000237B603B4619460648A9
:1013980002F074F90346002B01D0FFF7B7FD00BF38
:1013A8001837BD4680BD00BF8C01002000080040F2
:1013B80080B584B000AF78607B681B68B3F1804F5C
:1013C80016D10023FB601A4B1B6C194A43F001032A
:1013D8001364174B1B6C03F00103FB60FB680022CE
:1013E80000211C2000F03DFA1C2000F056FA1AE0FB
:1013F8007B681B680F4A934215D10023BB600C4BD6
:101408001B6C0B4A43F004031364094B1B6C03F079
:101418000403BB60BB68002200211E2000F021FAF3
:101428001E2000F03AFA00BF1037BD4680BD00BF4D
:10143800003802400008004080B500AF114B124A46
:101448001A60104B4FF4E1325A600E4B00229A603A
:101458000C4B0022DA600B4B00221A61094B0C225C
:101468005A61084B00229A61064B0022DA6105484E
:1014780002F094F90346002B01D0FFF747FD00BFA7
:1014880080BD00BFD40100200010014080B58AB0A3
:1014980000AF786007F1140300221A605A609A605E
:1014A800DA601A617B681B681D4A934234D10023B5
:1014B8003B611C4B5B6C1B4A43F010035364194B94
:1014C8005B6C03F010033B613B690023FB60154B29
:1014D8001B6B144A43F001031363124B1B6B03F09D
:1014E8000103FB60FB684FF4C0637B610223BB61AF
:1014F8000023FB6103233B6207237B6207F114038C
:101508001946094800F076FA00220021252000F04B
:10151800A8F9252000F0C1F900BF2837BD4680BDD5
:10152800001001400038024000000240DFF834D0CB
:10153800FFF792FE0C480D490D4A002302E0D458EB
:10154800C4500433C4188C42F9D30A4A0A4C002305
:1015580001E013600432A242FBD303F01DF9FFF748
:1015680027FC704700000220000000201400002023
:10157800284800081400002020020020FEE7000090
:1015880080B500AF0E4B1B680D4A43F4007313601F
:101598000B4B1B680A4A43F480631360084B1B68B3
:1015A800074A43F480731360032000F04FF90F20BB
:1015B80000F008F8FFF7DAFD0023184680BD00BFE9
:1015C800003C024080B582B000AF7860124B1A68C8
:1015D800124B1B7819464FF47A73B3FBF1F3B2FB45
:1015E800F3F3184600F067F90346002B01D00123F6
:1015F8000EE07B680F2B0AD8002279684FF0FF3085
:1016080000F02FF9064A7B681360002300E00123ED
:1016180018460837BD4680BD08000020100000208D
:101628000C00002080B400AF064B1B781A46064B0E
:101638001B681344044A136000BFBD465DF8047B71
:10164800704700BF100000201C02002080B400AFCB
:10165800034B1B681846BD465DF8047B704700BF06
:101668001C02002080B584B000AF7860FFF7EEFF61
:10167800B8607B68FB60FB68B3F1FF3F05D00A4B9D
:101688001B781A46FB681344FB6000BFFFF7DEFFB8
:101698000246BB68D31AFA689A42F7D800BF00BF5F
:1016A8001037BD4680BD00BF1000002080B485B053
:1016B80000AF78607B6803F00703FB600C4BDB68C6
:1016C800BB60BA684FF6FF031340BB60FB681A02A1
:1016D800BB68134343F0BF6343F40033BB60044A61
:1016E800BB68D36000BF1437BD465DF8047B704704
:1016F80000ED00E080B400AF044BDB681B0A03F088
:1017080007031846BD465DF8047B704700ED00E00E
:1017180080B483B000AF0346FB7197F90730002B04
:101728000BDBFB7903F01F02074997F907305B09C8
:10173800012000FA02F241F8232000BF0C37BD4611
:101748005DF8047B704700BF00E100E080B483B01F
:1017580000AF03463960FB7197F90730002B0ADBAD
:101768003B68DAB20C4997F907301201D2B20B4440
:1017780083F800230AE03B68DAB20849FB7903F0F2
:101788000F03043B1201D2B20B441A7600BF0C3788
:10179800BD465DF8047B704700E100E000ED00E025
:1017A80080B489B000AFF860B9607A60FB6803F074
:1017B8000703FB61FB69C3F10703042B28BF04235C
:1017C800BB61FB690433062B02D9FB69033B00E0CC
:1017D80000237B614FF0FF32BB6902FA03F3DA435F
:1017E800BB681A407B699A404FF0FF317B6901FA68
:1017F80003F3D9437B680B40134318462437BD468F
:101808005DF8047B7047000080B582B000AF786057
:101818007B68013BB3F1807F01D301230FE00A4AC3
:101828007B68013B53600F214FF0FF30FFF78EFFBD
:10183800054B00229A60044B07221A6000231846C1
:101848000837BD4680BD00BF10E000E080B582B01B
:1018580000AF78607868FFF729FF00BF0837BD46FA
:1018680080BD80B586B000AF0346B9607A60FB736F
:1018780000237B61FFF73EFF78617A68B968786971
:10188800FFF78EFF024697F90F3011461846FFF70B
:101898005DFF00BF1837BD4680BD80B582B000AF80
:1018A8000346FB7197F907301846FFF731FF00BF71
:1018B8000837BD4680BD80B582B000AF78607868D3
:1018C800FFF7A2FF034618460837BD4680BD80B51E
:1018D80084B000AF78607B689B6DFB60FFF7B6FE55
:1018E800B8607B6893F83530DBB2022B08D07B6890
:1018F80080225A657B68002283F83420012352E055
:101908007B681B681A687B681B6822F016021A60DD
:101918007B681B685A697B681B6822F080025A61E1
:101928007B681B6C002B03D17B689B6C002B07D05A
:101938007B681B681A687B681B6822F008021A60BB
:101948007B681B681A687B681B6822F001021A60B2
:1019580013E0FFF77BFE0246BB68D31A052B0CD9B0
:101968007B6820225A657B68032283F835207B68D0
:10197800002283F83420032315E07B681B681B686A
:1019880003F00103002BE4D17B68DB6D3F229A4012
:10199800FB689A607B68012283F835207B68002207
:1019A80083F83420002318461037BD4680BD80B424
:1019B80083B000AF78607B6893F83530DBB2022BD8
:1019C80004D07B6880225A6501230CE07B680522DD
:1019D80083F835207B681B681A687B681B6822F0CF
:1019E80001021A60002318460C37BD465DF8047BD7
:1019F8007047000080B489B000AF78603960002378
:101A08007B6100233B610023BB610023FB616BE129
:101A18000122FB6902FA03F37B613B681B687A6960
:101A280013403B613A697B699A4240F05A813B68AE
:101A38005B6803F00303012B05D03B685B6803F088
:101A48000303022B30D17B689B68BB61FB695B0099
:101A5800032202FA03F3DB43BA691340BB613B6814
:101A6800DA68FB695B0002FA03F3BA691343BB61E6
:101A78007B68BA699A607B685B68BB610122FB6915
:101A880002FA03F3DB43BA691340BB613B685B6846
:101A98001B0903F00102FB6902FA03F3BA69134355
:101AA800BB617B68BA695A603B685B6803F00303F3
:101AB800032B17D07B68DB68BB61FB695B000322E3
:101AC80002FA03F3DB43BA691340BB613B689A68C7
:101AD800FB695B0002FA03F3BA691343BB617B68D5
:101AE800BA69DA603B685B6803F00303022B23D111
:101AF800FB69DA087B68083253F82230BB61FB695E
:101B080003F007039B000F2202FA03F3DB43BA69D1
:101B18001340BB613B681A69FB6903F007039B002C
:101B280002FA03F3BA691343BB61FB69DA087B68FD
:101B38000832B96943F822107B681B68BB61FB69EE
:101B48005B00032202FA03F3DB43BA691340BB616B
:101B58003B685B6803F00302FB695B0002FA03F36E
:101B6800BA691343BB617B68BA691A603B685B68F2
:101B780003F44033002B00F0B4800023FB60604B7B
:101B88005B6C5F4A43F4804353645D4B5B6C03F4C6
:101B98008043FB60FB685B4AFB699B08023352F891
:101BA8002330BB61FB6903F003039B000F2202FA99
:101BB80003F3DB43BA691340BB617B68524A934223
:101BC8002BD07B68514A934225D07B68504A934278
:101BD8001FD07B684F4A934219D07B684E4A934284
:101BE80013D07B684D4A93420DD07B684C4A934290
:101BF80007D07B684B4A934201D107230EE00823A4
:101C08000CE006230AE0052308E0042306E003238A
:101C180004E0022302E0012300E00023FA6902F055
:101C2800030292009340BA691343BB613549FB69CB
:101C38009B080233BA6941F823203B4B9B68BB6180
:101C48003B69DB43BA691340BB613B685B6803F4DB
:101C58008013002B03D0BA693B691343BB61324A36
:101C6800BB699360304BDB68BB613B69DB43BA6996
:101C78001340BB613B685B6803F40013002B03D07F
:101C8800BA693B691343BB61274ABB69D360264BDA
:101C98005B68BB613B69DB43BA691340BB613B6866
:101CA8005B6803F40033002B03D0BA693B69134324
:101CB800BB611D4ABB6953601B4B1B68BB613B6919
:101CC800DB43BA691340BB613B685B6803F480334C
:101CD800002B03D0BA693B691343BB61124ABB6945
:101CE8001360FB690133FB61FB690F2B7FF690AE34
:101CF80000BF00BF2437BD465DF8047B704700BFB6
:101D08000038024000380140000002400004024050
:101D180000080240000C024000100240001402407B
:101D280000180240001C0240003C014080B483B00F
:101D380000AF78600B467B8013467B707B78002B66
:101D480003D07A887B689A6103E07B881A047B68F1
:101D58009A6100BF0C37BD465DF8047B704780B4BC
:101D680085B000AF78600B467B807B685B69FB6061
:101D78007A88FB6813401A04FB68D9437B880B40B8
:101D88001A437B689A6100BF1437BD465DF8047B2F
:101D98007047000080B584B000AF78607B68002B86
:101DA80001D101232BE17B6893F83D30DBB2002B96
:101DB80006D17B68002283F83C207868FEF762FD34
:101DC8007B68242283F83D207B681B681A687B683F
:101DD8001B6822F001021A607B681B681A687B681E
:101DE8001B6842F400421A607B681B681A687B68AB
:101DF8001B6822F400421A6000F040FDF8607B681E
:101E08005B68814A934207D8FB68804A934294BF33
:101E180001230023DBB206E0FB687D4A934294BFAE
:101E280001230023DBB2002B01D00123E7E0FB688C
:101E3800784AA2FB03239B0CBB607B681B685B682A
:101E480023F03F017B681B68BA680A435A607B68C5
:101E58001B681B6A23F03F017B685B686A4A9342F0
:101E680002D8BB68013309E0BB684FF4967202FBE5
:101E780003F3694AA2FB03239B0901337A681268BA
:101E88000B4313627B681B68DB6923F44F4222F023
:101E9800FF027B685B685C498B4219D8FB68591E56
:101EA8007B685B685B00B1FBF3F3591C40F6FC737D
:101EB8000B40002B0AD0FB68591E7B685B685B00EF
:101EC800B1FBF3F30133C3F30B0351E004234FE0F9
:101ED8007B689B68002B11D1FB68581E7B6859688A
:101EE8000B465B000B44B0FBF3F30133C3F30B0366
:101EF800002B0CBF01230023DBB212E0FB68581E45
:101F08007B6859680B469B000B4499000B44B0FB57
:101F1800F3F30133C3F30B03002B0CBF012300239E
:101F2800DBB2002B01D0012322E07B689B68002BE9
:101F38000ED1FB68581E7B6859680B465B000B4442
:101F4800B0FBF3F30133C3F30B0343F400430FE097
:101F5800FB68581E7B6859680B469B000B44990028
:101F68000B44B0FBF3F30133C3F30B0343F44043D7
:101F7800796809681343CB617B681B681B6823F089
:101F8800C0017B68DA697B681B6A1A437B681B6837
:101F98000A431A607B681B689B6823F4034323F099
:101FA800FF037A6811697A68D26811437A681268FF
:101FB8000B4393607B681B68DB6823F0FF017B6839
:101FC8005A697B689B691A437B681B680A43DA6015
:101FD8007B681B681A687B681B6842F001021A60FC
:101FE8007B6800221A647B68202283F83D207B6886
:101FF80000221A637B68002283F83E2000231846DB
:102008001037BD4680BD00BFA08601007F841E003A
:10201800FF083D0083DE1B43D34D621080B586B0B8
:1020280000AF78607B68002B01D1012367E27B68F1
:102038001B6803F00103002B75D0884B9B6803F0E5
:102048000C03042B0CD0854B9B6803F00C03082B66
:1020580012D1824B5B6803F48003B3F5800F0BD178
:102068007E4B1B6803F40033002B5BD07B685B68F6
:10207800002B57D1012342E27B685B68B3F5803FB0
:1020880006D1764B1B68754A43F4803313601DE014
:102098007B685B68B3F5A02F0CD1704B1B686F4A47
:1020A80043F4802313606D4B1B686C4A43F4803300
:1020B80013600BE0694B1B68684A23F48033136094
:1020C800664B1B68654A23F4802313607B685B6852
:1020D800002B13D0FFF7BAFA386108E0FFF7B6FA19
:1020E80002463B69D31A642B01D9032307E25B4BF1
:1020F8001B6803F40033002BF0D014E0FFF7A6FAB6
:10210800386108E0FFF7A2FA02463B69D31A642B4C
:1021180001D90323F3E1514B1B6803F40033002B6F
:10212800F0D100E000BF7B681B6803F00203002BBE
:1021380063D04A4B9B6803F00C03002B0BD0474B32
:102148009B6803F00C03082B1CD1444B5B6803F419
:102158008003002B16D1414B1B6803F00203002BB0
:1021680005D07B68DB68012B01D00123C7E13B4B1D
:102178001B6823F0F8027B681B69DB0037491343AF
:102188000B603AE07B68DB68002B20D0344B0122DF
:102198001A60FFF75BFA386108E0FFF757FA024662
:1021A8003B69D31A022B01D90323A8E12B4B1B68E7
:1021B80003F00203002BF0D0284B1B6823F0F80231
:1021C8007B681B69DB00254913430B6015E0244B32
:1021D80000221A60FFF73AFA386108E0FFF736FA8A
:1021E80002463B69D31A022B01D9032387E11B4B13
:1021F8001B6803F00203002BF0D17B681B6803F017
:102208000803002B36D07B685B69002B16D0154B72
:1022180001221A60FFF71AFA386108E0FFF716FA88
:1022280002463B69D31A022B01D9032367E10B4B02
:102238005B6F03F00203002BF0D01BE0094B002278
:102248001A60FFF703FA38610EE0FFF7FFF902465C
:102258003B69D31A022B07D9032350E10038024007
:1022680000004742800E4742884B5B6F03F0020331
:10227800002BEAD17B681B6803F00403002B00F0F5
:1022880097800023FB75814B1B6C03F08053002B58
:102298000FD10023BB607D4B1B6C7C4A43F08053FD
:1022A80013647A4B1B6C03F08053BB60BB6801233B
:1022B800FB75774B1B6803F48073002B18D1744BA4
:1022C8001B68734A43F480731360FFF7BFF93861E2
:1022D80008E0FFF7BBF902463B69D31A022B01D984
:1022E80003230CE16A4B1B6803F48073002BF0D0C6
:1022F8007B689B68012B06D1644B1B6F634A43F0D4
:10230800010313671CE07B689B68052B0CD15F4BAE
:102318001B6F5E4A43F0040313675C4B1B6F5B4AF9
:1023280043F0010313670BE0584B1B6F574A23F028
:1023380001031367554B1B6F544A23F004031367BB
:102348007B689B68002B15D0FFF780F938610AE09D
:10235800FFF77CF902463B69D31A41F2883293426F
:1023680001D90323CBE0494B1B6F03F00203002B79
:10237800EED014E0FFF76AF938610AE0FFF766F972
:1023880002463B69D31A41F28832934201D90323AA
:10239800B5E03E4B1B6F03F00203002BEED1FB7D33
:1023A800012B05D1394B1B6C384A23F08053136439
:1023B8007B689B69002B00F0A180344B9B6803F07D
:1023C8000C03082B5CD07B689B69022B41D1314BF5
:1023D80000221A60FFF73AF9386108E0FFF736F98A
:1023E80002463B69D31A022B01D9032387E0274B06
:1023F8001B6803F00073002BF0D17B68DA697B68F7
:102408001B6A1A437B685B6A9B011A437B689B6A59
:102418005B08013B1B041A437B68DB6A1B061B49EC
:1024280013434B601B4B01221A60FFF70FF9386109
:1024380008E0FFF70BF902463B69D31A022B01D9D2
:1024480003235CE0114B1B6803F00073002BF0D0F2
:1024580054E0104B00221A60FFF7F8F8386108E0E2
:10246800FFF7F4F802463B69D31A022B01D903237C
:1024780045E0064B1B6803F00073002BF0D13DE0EC
:102488007B689B69012B07D1012338E000380240A3
:1024980000700040600047421B4B5B68FB607B6834
:1024A8009B69012B28D0FB6803F480027B68DB69F9
:1024B8009A4221D1FB6803F03F027B681B6A9A426B
:1024C8001AD1FA6847F6C07313407A68526A9201C3
:1024D800934211D1FB6803F440327B689B6A5B0826
:1024E800013B1B049A4207D1FB6803F070627B68CA
:1024F800DB6A1B069A4201D0012300E0002318463C
:102508001837BD4680BD00BF0038024080B584B092
:1025180000AF786039607B68002B01D10123CCE0E3
:10252800684B1B6803F007033A689A420CD9654B5D
:102538003A68D2B21A70634B1B6803F007033A6813
:102548009A4201D00123B8E07B681B6803F00203BC
:10255800002B20D07B681B6803F00403002B05D0F8
:10256800594B9B68584A43F4E05393607B681B6857
:1025780003F00803002B05D0534B9B68524A43F4E1
:1025880060439360504B9B6823F0F0027B689B6824
:102598004D4913438B607B681B6803F00103002BD4
:1025A80044D07B685B68012B07D1474B1B6803F459
:1025B8000033002B19D101237FE07B685B68022B75
:1025C80003D07B685B68032B07D13F4B1B6803F084
:1025D8000073002B09D101236FE03B4B1B6803F00C
:1025E8000203002B01D1012367E0374B9B6823F0DE
:1025F80003027B685B68344913438B60FFF726F856
:10260800F8600AE0FFF722F80246FB68D31A41F2A5
:102618008832934201D903234FE02B4B9B6803F088
:102628000C027B685B689B009A42EBD1254B1B68C8
:1026380003F007033A689A420CD2224B3A68D2B2A6
:102648001A70204B1B6803F007033A689A4201D0BE
:10265800012332E07B681B6803F00403002B08D0D9
:10266800194B9B6823F4E0527B68DB6816491343D7
:102678008B607B681B6803F00803002B09D0124BA2
:102688009B6823F460427B681B69DB000E49134397
:102698008B6000F021F802460B4B9B681B0903F086
:1026A8000F030A49CB5C22FA03F3094A1360094B6A
:1026B8001B681846FEF786FF002318461037BD46EC
:1026C80080BD00BF003C02400038024000480008BE
:1026D800080000200C0000202DE9B04F90B000AF9A
:1026E80000237B630023FB6300233B630023BB635E
:1026F800594B9B6803F00C03082B0DD0082B00F2F4
:10270800A180002B02D0042B03D09BE0534BBB636A
:102718009BE0534BBB6398E04F4B5B6803F03F0370
:102728007B634D4B5B6803F48003002B28D04A4B36
:102738005B689B0900223B627A623B6AC3F308002C
:102748000021474B03FB01F2002300FB03F3134472
:10275800434AA0FB0212FA620A46BA62FA6A1344B2
:10276800FB627B6B0022BB61FA61D7E90623D7E9DC
:102778000A01FDF725FD02460B461346FB6353E0AD
:10278800354B5B689B0900223B617A613B69C3F367
:10279800080A4FF0000B52465B464FF000004FF01E
:1027A8000001590141EAD261500102460B46B2EBE1
:1027B8000A0863EB0B094FF000024FF000034FEAE1
:1027C800891343EA98634FEA8812B2EB080463EB73
:1027D80009054FF000024FF00003EB0043EA547381
:1027E800E20014461D4614EB0A033B6045EB0B035D
:1027F8007B604FF000024FF00003D7E900452946FF
:102808008B02214643EA915321468A021046194613
:102818007B6B0022BB60FA60D7E90223FDF7D0FC8E
:1028280002460B461346FB630B4B5B681B0C03F01D
:10283800030301335B003B63FA6B3B6BB2FBF3F3BF
:10284800BB6302E0054BBB6300BFBB6B1846403758
:10285800BD46BDE8B08F00BF003802400024F40038
:1028680040787D0180B400AF034B1B681846BD4615
:102878005DF8047B704700BF0800002080B500AFFA
:10288800FFF7F0FF0246054B9B689B0A03F007031E
:102898000349CB5C22FA03F3184680BD0038024096
:1028A8001048000880B500AFFFF7DCFF0246054B73
:1028B8009B685B0B03F007030349CB5C22FA03F325
:1028C800184680BD003802401048000880B582B024
:1028D80000AF78607B68002B01D101237BE07B6827
:1028E8005B6A002B08D17B685B68B3F5827F09D0EF
:1028F8007B680022DA6105E07B6800221A617B6848
:1029080000225A617B6800229A627B6893F85130F2
:10291800DBB2002B06D17B68002283F85020786850
:10292800FEF7DCFB7B68022283F851207B681B687A
:102938001A687B681B6822F040021A607B685B6833
:1029480003F482727B689B6803F404431A437B6830
:10295800DB6803F400631A437B681B6903F0020316
:102968001A437B685B6903F001031A437B689B6920
:1029780003F400731A437B68DB6903F038031A43D6
:102988007B681B6A03F0800342EA03017B689B6A49
:1029980003F400527B681B680A431A607B689B69D2
:1029A8001B0C03F004017B685B6A03F010027B6870
:1029B8001B680A435A607B681B68DA697B681B6876
:1029C80022F40062DA617B6800225A657B68012282
:1029D80083F85120002318460837BD4680BD80B5CE
:1029E80088B000AFF860B9603B601346FB80FEF723
:1029F8002DFEF861FB887B83FB6893F85130DBB2CE
:102A0800012B01D002232AE1BB68002B02D0FB88EE
:102A1800002B01D1012322E1FB6893F85030012BF0
:102A280001D102231BE1FB68012283F85020FB68D7
:102A3800032283F85120FB6800225A65FB68BA68B4
:102A48001A63FB68FA889A86FB68FA88DA86FB6854
:102A580000229A63FB6800229A87FB680022DA87C3
:102A6800FB6800225A64FB6800221A64FB689B68B2
:102A7800B3F5004F0FD1FB681B681A68FB681B6829
:102A880022F040021A60FB681B681A68FB681B6822
:102A980042F480421A60FB681B681B6803F040031D
:102AA800402B07D0FB681B681A68FB681B6842F05C
:102AB80040021A60FB68DB68B3F5006F52D1FB680F
:102AC8005B68002B02D07B8B012B45D1FB681B6B0D
:102AD8001A88FB681B68DA60FB681B6B9A1CFB682A
:102AE8001A63FB68DB8E9BB2013B9AB2FB68DA86FD
:102AF80032E0FB681B689B6803F00203022B12D1CB
:102B0800FB681B6B1A88FB681B68DA60FB681B6B29
:102B18009A1CFB681A63FB68DB8E9BB2013B9AB276
:102B2800FB68DA8618E0FEF791FD0246FB69D31AC6
:102B38003A689A4203D83B68B3F1FF3F02D13B6839
:102B4800002B09D1FB68012283F85120FB68002281
:102B580083F85020032382E0FB68DB8E9BB2002BB6
:102B6800C7D153E0FB685B68002B02D07B8B012B3D
:102B780047D1FB681A6BFB681B680C3312781A7014
:102B8800FB681B6B5A1CFB681A63FB68DB8E9BB2E5
:102B9800013B9AB2FB68DA8633E0FB681B689B68E6
:102BA80003F00203022B13D1FB681A6BFB681B6846
:102BB8000C3312781A70FB681B6B5A1CFB681A637B
:102BC800FB68DB8E9BB2013B9AB2FB68DA8618E0A1
:102BD800FEF73CFD0246FB69D31A3A689A4203D8CD
:102BE8003B68B3F1FF3F02D13B68002B09D1FB687A
:102BF800012283F85120FB68002283F85020032328
:102C08002DE0FB68DB8E9BB2002BC6D1FA693968D0
:102C1800F86800F0B1F80346002B02D0FB682022C8
:102C28005A65FB689B68002B0AD100237B61FB680F
:102C38001B68DB687B61FB681B689B687B617B6941
:102C4800FB68012283F85120FB68002283F850209A
:102C5800FB685B6D002B01D0012300E000231846C0
:102C68002037BD4680BD000080B588B000AFF86051
:102C7800B9603B601346FB71FEF7E8FC0246BB6A8D
:102C88009B1A3A681344FB61FEF7E0FCB861394BC4
:102C98001B685B011B0DFA6902FB03F37B6154E0BF
:102CA8003B68B3F1FF3F50D0FEF7D0FC0246BB694A
:102CB800D31AFA699A4202D9FB69002B3DD1FB6805
:102CC8001B685A68FB681B6822F0E0025A60FB68C0
:102CD8005B68B3F5827F11D1FB689B68B3F5004F41
:102CE80004D0FB689B68B3F5806F07D1FB681B684D
:102CF8001A68FB681B6822F040021A60FB689B6A2E
:102D0800B3F5005F0FD1FB681B681A68FB681B6886
:102D180022F400521A60FB681B681A68FB681B687B
:102D280042F400521A60FB68012283F85120FB68C4
:102D3800002283F85020032317E07B69002B01D180
:102D48000023FB617B69013B7B61FB681B689A6818
:102D5800BB681340BA689A420CBF01230023DBB258
:102D68001A46FB799A429BD1002318462037BD4664
:102D780080BD00BF0800002080B588B002AFF860B1
:102D8800B9607A607B680093BB6801220221F86809
:102D9800FFF76AFF0346002B07D0FB685B6D43F023
:102DA8002002FB685A65032332E01B4B1B681B4A51
:102DB800A2FB03235B0D4FF47A7202FB03F37B61E2
:102DC800FB685B68B3F5827F12D17B680093BB68B0
:102DD80000228021F868FFF747FF0346002B16D032
:102DE800FB685B6D43F02002FB685A6503230FE024
:102DF8007B69002B0AD07B69013B7B61FB681B6800
:102E08009B6803F08003802BF2D000E000BF002312
:102E180018461837BD4680BD08000020819F5E1601
:102E280080B584B000AFF860B9607A60FB68002BA9
:102E380001D1012338E0FB6893F84930DBB2002B5D
:102E480006D1FB68002283F84820F868FDF702FCE9
:102E5800FB681A68FB6808331946104601F0BCFB8A
:102E6800FB681868FB689B681A46B96801F01EFC85
:102E7800FB685868FB689A68FB681B6B796801F007
:102E88004BFCFB681B68FA68926853F82210FB68D1
:102E98001B68FA68926841F0010143F82210FB6848
:102EA800012283F84920002318461037BD4680BD0B
:102EB80080B582B000AF78607B68002B01D1012318
:102EC80041E07B6893F83D30DBB2002B06D17B688C
:102ED800002283F83C207868FEF76AFA7B680222B1
:102EE80083F83D207B681A687B68043319461046CE
:102EF80000F07EFA7B68012283F846207B68012275
:102F080083F83E207B68012283F83F207B680122FA
:102F180083F840207B68012283F841207B680122E6
:102F280083F842207B68012283F843207B680122D2
:102F380083F844207B68012283F845207B680122BE
:102F480083F83D20002318460837BD4680BD0000A1
:102F580080B485B000AF78607B6893F83D30DBB211
:102F6800012B01D001234EE07B68022283F83D202B
:102F78007B681B68DA687B681B6842F00102DA60CC
:102F88007B681B68234A934222D07B681B68B3F195
:102F9800804F1DD07B681B681F4A934218D07B68FE
:102FA8001B681E4A934213D07B681B681C4A9342D5
:102FB8000ED07B681B681B4A934209D07B681B684C
:102FC800194A934204D07B681B68184A934211D16E
:102FD8007B681B689B6803F00703FB60FB68062B94
:102FE80010D07B681B681A687B681B6842F0010276
:102FF8001A6007E07B681B681A687B681B6842F0E8
:1030080001021A60002318461437BD465DF8047B98
:10301800704700BF00000140000400400008004065
:10302800000C00400004014000400140001800402E
:1030380080B584B000AF78607B681B68DB68FB6094
:103048007B681B681B69BB60BB6803F00203002B2D
:1030580020D0FB6803F00203002B1BD07B681B68A1
:103068006FF002021A617B6801221A777B681B687D
:103078009B6903F00303002B03D0786800F099F9EB
:1030880005E0786800F08BF9786800F09CF97B68B7
:1030980000221A77BB6803F00403002B20D0FB68DA
:1030A80003F00403002B1BD07B681B686FF004023D
:1030B8001A617B6802221A777B681B689B6903F494
:1030C8004073002B03D0786800F073F905E0786846
:1030D80000F065F9786800F076F97B6800221A77C5
:1030E800BB6803F00803002B20D0FB6803F008033B
:1030F800002B1BD07B681B686FF008021A617B6885
:1031080004221A777B681B68DB6903F00303002B32
:1031180003D0786800F04DF905E0786800F03FF9D1
:10312800786800F050F97B6800221A77BB6803F0D2
:103138001003002B20D0FB6803F01003002B1BD0DA
:103148007B681B686FF010021A617B6808221A7787
:103158007B681B68DB6903F44073002B03D0786835
:1031680000F027F905E0786800F019F9786800F0B0
:103178002AF97B6800221A77BB6803F00103002B49
:103188000CD0FB6803F00103002B07D07B681B6899
:103198006FF001021A617868FDF72AFFBB6803F037
:1031A8008003002B0CD0FB6803F08003002B07D0B2
:1031B8007B681B686FF080021A61786800F0E4FA97
:1031C800BB6803F04003002B0CD0FB6803F04003FE
:1031D800002B07D07B681B686FF040021A61786883
:1031E80000F0FBF8BB6803F02003002B0CD0FB6851
:1031F80003F02003002B07D07B681B686FF02002C8
:103208001A61786800F0B6FA00BF1037BD4680BD75
:1032180080B584B000AF786039600023FB737B68A9
:1032280093F83C30012B01D10223B4E07B680122E2
:1032380083F83C207B68022283F83D207B681B686A
:103248009B68BB60BB6823F07703BB60BB6823F453
:103258007F43BB607B681B68BA689A603B681B68E1
:10326800B3F5005F3ED0B3F5005F00F28780B3F599
:10327800805F00F08680B3F5805F7FD8702B1AD00E
:10328800702B7BD8602B50D0602B77D8502B3CD03C
:10329800502B73D8402B58D0402B6FD8302B64D08C
:1032A800302B6BD8202B60D0202B67D8002B5CD01C
:1032B800102B5AD062E07B6818683B6899683B68B5
:1032C8005A683B68DB6800F0B9F97B681B689B6843
:1032D800BB60BB6843F07703BB607B681B68BA6858
:1032E8009A604FE07B6818683B6899683B685A6841
:1032F8003B68DB6800F0A2F97B681B689A687B680A
:103308001B6842F480429A603CE07B6818683B681E
:1033180059683B68DB681A4600F016F97B681B6839
:103328005021184600F06FF92CE07B6818683B685C
:1033380059683B68DB681A4600F035F97B681B68FA
:103348006021184600F05FF91CE07B6818683B684C
:1033580059683B68DB681A4600F0F6F87B681B681A
:103368004021184600F04FF90CE07B681A683B686A
:103378001B681946104600F046F903E00123FB7369
:1033880000E000BF7B68012283F83D207B680022B3
:1033980083F83C20FB7B18461037BD4680BD80B4BF
:1033A80083B000AF786000BF0C37BD465DF8047B82
:1033B800704780B483B000AF786000BF0C37BD465B
:1033C8005DF8047B704780B483B000AF786000BFBD
:1033D8000C37BD465DF8047B704780B483B000AFFE
:1033E800786000BF0C37BD465DF8047B704700006D
:1033F80080B485B000AF786039607B681B68FB607B
:103408007B68464A934213D07B68B3F1804F0FD054
:103418007B68434A93420BD07B68424A934207D069
:103428007B68414A934203D07B68404A934208D163
:10343800FB6823F07003FB603B685B68FA68134322
:10344800FB607B68354A93422BD07B68B3F1804F91
:1034580027D07B68324A934223D07B68314A934213
:103468001FD07B68304A93421BD07B682F4A934217
:1034780017D07B682E4A934213D07B682D4A93421B
:103488000FD07B682C4A93420BD07B682B4A93421F
:1034980007D07B682A4A934203D07B68294A934223
:1034A80008D1FB6823F44073FB603B68DB68FA686B
:1034B8001343FB60FB6823F080023B685B6913439E
:1034C800FB607B68FA681A603B689A687B68DA6216
:1034D8003B681A687B689A627B68104A934203D0FB
:1034E8007B68124A934203D13B681A697B681A6366
:1034F8007B6801225A617B681B6903F00103012B79
:1035080005D17B681B6923F001027B681A6100BF43
:103518001437BD465DF8047B704700BF00000140CA
:103528000004004000080040000C00400004014076
:10353800004001400044014000480140001800409C
:10354800001C00400020004080B487B000AFF86045
:10355800B9607A60FB681B6A7B61FB681B6A23F0B1
:103568000102FB681A62FB689B693B613B6923F0B7
:10357800F0033B617B681B013A6913433B617B693C
:1035880023F00A037B617A69BB6813437B61FB689C
:103598003A699A61FB687A691A6200BF1C37BD46AE
:1035A8005DF8047B704780B487B000AFF860B960FD
:1035B8007A60FB681B6A7B61FB681B6A23F0100258
:1035C800FB681A62FB689B693B613B6923F47043A3
:1035D8003B617B681B033A6913433B617B6923F0BA
:1035E800A0037B61BB681B017A6913437B61FB689D
:1035F8003A699A61FB687A691A6200BF1C37BD464E
:103608005DF8047B704780B485B000AF786039609E
:103618007B689B68FB60FB6823F07003FB603A687B
:10362800FB68134343F00703FB607B68FA689A6002
:1036380000BF1437BD465DF8047B704780B487B07F
:1036480000AFF860B9607A603B60FB689B687B619B
:103658007B6923F47F437B613B681A027B681A43CA
:10366800BB6813437A6913437B61FB687A699A6084
:1036780000BF1C37BD465DF8047B704780B485B039
:1036880000AF786039607B6893F83C30012B01D13A
:1036980002235AE07B68012283F83C207B680222DF
:1036A80083F83D207B681B685B68FB607B681B6850
:1036B8009B68BB60FB6823F07003FB603B681B687A
:1036C800FA681343FB607B681B68FA685A607B687A
:1036D8001B68214A934222D07B681B68B3F1804F54
:1036E8001DD07B681B681D4A934218D07B681B68F5
:1036F8001B4A934213D07B681B681A4A93420ED028
:103708007B681B68184A934209D07B681B68174A74
:10371800934204D07B681B68154A93420CD1BB685E
:1037280023F08003BB603B685B68BA681343BB60E7
:103738007B681B68BA689A607B68012283F83D2021
:103748007B68002283F83C20002318461437BD46C6
:103758005DF8047B704700BF000001400004004092
:1037680000080040000C00400004014000400140F7
:103778000018004080B483B000AF786000BF0C37F9
:10378800BD465DF8047B704780B483B000AF7860B5
:1037980000BF0C37BD465DF8047B704780B582B02A
:1037A80000AF78607B68002B01D1012342E07B6881
:1037B80093F84130DBB2002B06D17B68002283F8F6
:1037C80040207868FDF762FE7B68242283F8412058
:1037D8007B681B68DA687B681B6822F40052DA6031
:1037E800786800F085FC7B681B681A697B681B6831
:1037F80022F490421A617B681B685A697B681B68CF
:1038080022F02A025A617B681B68DA687B681B68A9
:1038180042F40052DA607B6800225A647B682022F6
:1038280083F841207B68202283F842207B680022AD
:103838005A63002318460837BD4680BD80B5BAB024
:1038480000AF78607B681B681B68C7F8E4307B684A
:103858001B68DB68C7F8E0307B681B685B69C7F8E2
:10386800DC300023C7F8D8300023C7F8D430D7F8A5
:10387800E43003F00F03C7F8D830D7F8D830002B5E
:103888000FD1D7F8E43003F02003002B09D0D7F884
:10389800E03003F02003002B03D0786800F069FBC8
:1038A8005BE2D7F8D830002B00F0DE80D7F8DC30A8
:1038B80003F00103002B06D1D7F8E03003F490732E
:1038C800002B00F0D180D7F8E43003F00103002B7F
:1038D8000BD0D7F8E03003F48073002B05D07B6859
:1038E8005B6C43F001027B685A64D7F8E43003F05C
:1038F8000403002B0BD0D7F8DC3003F00103002BB6
:1039080005D07B685B6C43F002027B685A64D7F889
:10391800E43003F00203002B0BD0D7F8DC3003F0BF
:103928000103002B05D07B685B6C43F004027B68C5
:103938005A64D7F8E43003F00803002B11D0D7F805
:10394800E03003F02003002B05D1D7F8DC3003F07A
:103958000103002B05D07B685B6C43F008027B6891
:103968005A647B685B6C002B00F0F281D7F8E43076
:1039780003F02003002B08D0D7F8E03003F0200331
:10398800002B02D0786800F0F4FA7B681B685B694A
:1039980003F04003402B0CBF01230023DBB2C7F820
:1039A800D4307B685B6C03F00803002B03D1D7F895
:1039B800D430002B4FD0786800F0FCF97B681B6886
:1039C8005B6903F04003402B41D17B681B681433CB
:1039D800C7F89C30D7F89C3053E8003FC7F89830B8
:1039E800D7F8983023F04003C7F8D0307B681B68BD
:1039F8001433D7F8D020C7F8A820C7F8A430D7F8D0
:103A0800A410D7F8A82041E80023C7F8A030D7F8B9
:103A1800A030002BD9D17B68DB6B002B13D07B68DF
:103A2800DB6B7E4A1A657B68DB6B1846FDF7BFFFC8
:103A38000346002B16D07B68DB6B1B6D7A68D26B54
:103A4800104698470EE0786800F09EF90AE078681A
:103A580000F09AF906E0786800F096F97B68002291
:103A68005A6475E100BF73E17B681B6B012B40F062
:103A78004F81D7F8E43003F01003002B00F04881A1
:103A8800D7F8E03003F01003002B00F04181002349
:103A9800BB607B681B681B68BB607B681B685B68D6
:103AA800BB60BB687B681B685B6903F04003402B05
:103AB80040F0B6807B68DB6B1B685B68A7F8BE309C
:103AC800B7F8BE30002B00F045817B689B8DB7F8B6
:103AD800BE209A4280F03E817B68B7F8BE20DA8526
:103AE8007B68DB6BDB69B3F5807F00F088807B68DF
:103AF8001B680C33C7F88830D7F8883053E8003F84
:103B0800C7F88430D7F8843023F48073C7F8B83006
:103B18007B681B680C33D7F8B820C7F89420C7F81F
:103B28009030D7F89010D7F8942041E80023C7F8D0
:103B38008C30D7F88C30002BD9D17B681B681433B4
:103B48007B677B6F53E8003F3B673B6F23F00103C4
:103B5800C7F8B4307B681B681433D7F8B420C7F8AB
:103B68008020FB67F96FD7F8802041E80023BB6706
:103B7800BB6F002BE1D17B681B6814333B663B6E3F
:103B880053E8003FFB65FB6D23F04003C7F8B030F6
:103B98007B681B681433D7F8B020FA66BB66B96E29
:103BA800FA6E41E800237B667B6E002BE3D17B68CD
:103BB800202283F842207B6800221A637B681B68F6
:103BC8000C33FB64FB6C53E8003FBB64BB6C23F015
:103BD8001003C7F8AC307B681B680C33D7F8AC20EF
:103BE800BA657B65796DBA6D41E800233B653B6D2D
:103BF800002BE3D17B68DB6B1846FDF768FE7B681A
:103C080002225A637B689A8D7B68DB8D9BB2D31A3C
:103C18009BB21946786800F0C1F89BE0833E000823
:103C28007B689A8D7B68DB8D9BB2D31AA7F8CE3060
:103C38007B68DB8D9BB2002B00F08E80B7F8CE300E
:103C4800002B00F089807B681B680C33BB63BB6B5F
:103C580053E8003F7B637B6B23F49073C7F8C8304D
:103C68007B681B680C33D7F8C8207A643B64396CCE
:103C78007A6C41E80023FB63FB6B002BE3D17B6884
:103C88001B6814337B627B6A53E8003F3B623B6AE4
:103C980023F00103C7F8C4307B681B681433D7F8D6
:103CA800C4203A63FB62F96A3A6B41E80023BB62BD
:103CB800BB6A002BE3D17B68202283F842207B6813
:103CC80000221A637B681B680C333B613B6953E82D
:103CD800003FFB60FB6823F01003C7F8C0307B6827
:103CE8001B680C33D7F8C020FA61BB61B969FA695F
:103CF80041E800237B617B69002BE3D17B680222CA
:103D08005A63B7F8CE301946786800F047F823E0D0
:103D1800D7F8E43003F08003002B09D0D7F8E0305F
:103D280003F08003002B03D0786800F0BAF814E0A1
:103D3800D7F8E43003F04003002B0ED0D7F8E0307A
:103D480003F04003002B08D0786800F0FAF804E08C
:103D580000BF02E000BF00E000BFE837BD4680BDFD
:103D680080B483B000AF786000BF0C37BD465DF803
:103D7800047B704780B483B000AF786000BF0C3715
:103D8800BD465DF8047B704780B483B000AF7860AF
:103D980000BF0C37BD465DF8047B704780B483B024
:103DA80000AF78600B467B8000BF0C37BD465DF8DE
:103DB800047B704780B495B000AF78607B681B685F
:103DC8000C337B637B6B53E8003F3B633B6B23F413
:103DD8009073FB647B681B680C33FA6C3A64FB6372
:103DE800F96B3A6C41E80023BB63BB6B002BE5D150
:103DF8007B681B6814333B623B6A53E8003FFB61F6
:103E0800FB6923F00103BB647B681B681433BA6C3D
:103E1800FA62BB62B96AFA6A41E800237B627B6A8C
:103E2800002BE5D17B681B6B012B19D17B681B68C4
:103E38000C33FB60FB6853E8003FBB60BB6823F0B2
:103E480010037B647B681B680C337A6CBA617B61F6
:103E58007969BA6941E800233B613B69002BE5D1E8
:103E68007B68202283F842207B6800221A6300BF07
:103E78005437BD465DF8047B704780B584B000AF09
:103E880078607B689B6BFB60FB680022DA85FB68C7
:103E98000022DA84F868FFF777FF00BF1037BD46C5
:103EA80080BD80B485B000AF78607B6893F84130FE
:103EB800DBB2212B3ED17B689B68B3F5805F14D1C0
:103EC8007B681B69002B10D17B681B6AFB60FB6851
:103ED8001B881A467B681B68C2F308025A607B6815
:103EE8001B6A9A1C7B681A6208E07B681B6A591C6B
:103EF8007A6811621A787B681B685A607B68DB8C69
:103F08009BB2013B9BB27A681946D184002B0FD132
:103F18007B681B68DA687B681B6822F08002DA60BD
:103F28007B681B68DA687B681B6842F04002DA60CD
:103F3800002300E0022318461437BD465DF8047BD1
:103F4800704780B582B000AF78607B681B68DA681C
:103F58007B681B6822F04002DA607B68202283F8C5
:103F680041207868FFF7FCFE002318460837BD4655
:103F780080BD80B58CB000AF78607B6893F8423024
:103F8800DBB2222B40F0AE807B689B68B3F5805F84
:103F980017D17B681B69002B13D10023FB627B6858
:103FA8009B6ABB627B681B685B689BB2C3F30803B0
:103FB8009AB2BB6A1A807B689B6A9A1C7B689A6271
:103FC80026E07B689B6AFB620023BB627B689B6878
:103FD800B3F5805F07D07B689B68002B0AD17B68AC
:103FE8001B69002B06D17B681B685B68DAB2FB6A29
:103FF8001A7008E07B681B685B68DBB203F07F031C
:10400800DAB2FB6A1A707B689B6A5A1C7B689A62F0
:104018007B68DB8D9BB2013B9BB27A681946D185E0
:10402800002B5DD17B681B68DA687B681B6822F00F
:104038002002DA607B681B68DA687B681B6822F4F8
:104048008072DA607B681B685A697B681B6822F09B
:1040580001025A617B68202283F842207B68002293
:104068005A637B681B6B012B35D17B6800221A636E
:104078007B681B680C337B617B6953E8003F3B61BD
:104088003B6923F010037B627B681B680C337A6AF8
:104098003A62FB61F9693A6A41E80023BB61BB698E
:1040A800002BE5D17B681B681B6803F01003102BFD
:1040B8000AD10023FB607B681B681B68FB607B6878
:1040C8001B685B68FB60FB687B689B8D194678689A
:1040D800FFF764FE02E07868FFF74CFE002302E079
:1040E800002300E0022318463037BD4680BD00009B
:1040F8002DE9B04FC0B000AFC7F8F400D7F8F430DE
:104108001B681B6923F44050D7F8F430D968D7F8F6
:10411800F4301A6840EA01031361D7F8F4309A685A
:10412800D7F8F4301B691A43D7F8F4305B691A439F
:10413800D7F8F430DB691343C7F8F830D7F8F43010
:104148001B68DB6823F4164121F00C01D7F8F43022
:104158001A68D7F8F8300B43D360D7F8F4301B68E7
:104168005B6923F44070D7F8F4309969D7F8F430D4
:104178001A6840EA01035361D7F8F4301A688F4B84
:104188009A4205D0D7F8F4301A688D4B9A4204D178
:10419800FEF788FBC7F8FC0003E0FEF76FFBC7F8E3
:1041A800FC00D7F8F430DB69B3F5004F40F00C8120
:1041B800D7F8FC300022C7F8E830C7F8EC20D7E978
:1041C8003A4522462B469118B9655B41FB65D7E90C
:1041D8001623214612EB0108294643EB01094FF04B
:1041E80000024FF000034FEAC90343EA58734FEA4D
:1041F800C80290469946234618EB0303C7F8E030F7
:104208002B4649EB0303C7F8E430D7F8F4305B6872
:104218000022C7F8D830C7F8DC20D7E936120B4699
:10422800DB183B65134642EB03037B65D7E9142390
:10423800D7E93801FBF7C4FF02460B46614BA3FBE5
:1042480002235B091C01D7F8FC300022C7F8D030E4
:10425800C7F8D420D7E9348942464B469118B96447
:104268005B41FB64D7E91223414612EB010A494638
:1042780043EB010B4FF000024FF000034FEACB0372
:1042880043EA5A734FEACA0292469B4643461AEBE0
:104298000303C7F8C8304B464BEB0303C7F8CC30D1
:1042A800D7F8F4305B680022C7F8C030C7F8C420DC
:1042B800D7E930120B46DB183B64134642EB030385
:1042C8007B64D7E91023D7E93201FBF779FF02466F
:1042D8000B4611463B4BA3FB01235B09642202FBFF
:1042E80003F3CB1ADB0003F13202364BA3FB0223A4
:1042F8005B095B0003F4F8731C44D7F8FC30002218
:10430800C7F8B830C7F8BC20D7E92E8942464B46D3
:104318009118B9635B41FB63D7E90E2341465118F5
:10432800396349464B417B634FF000024FF000036D
:10433800D7E90CAB5946CB00514643EA5173514675
:10434800CA0010461946034642469B18C7F8B030C3
:104358004B460A4642EB0303C7F8B430D7F8F430AB
:104368005B680022C7F8A830C7F8AC20D7E92A1242
:104378000B46DB18BB62134642EB0303FB62D7E92B
:104388000A23D7E92C01FBF71BFF02460B460D4B0E
:10439800A3FB02135B09642101FB03F3D31ADB00BF
:1043A8003233084AA2FB03235B0903F00702D7F85C
:1043B800F4301B6822449A6006E100BF00100140F7
:1043C800001401401F85EB51D7F8FC300022C7F8D4
:1043D800A030C7F8A420D7E9288942464B4691184F
:1043E80039625B417B62D7E9082341465418494644
:1043F80043EB01054FF000024FF00003EB0043EAE6
:104408005473E20014461D464346E318C7F8983033
:104418004B4645EB0303C7F89C30D7F8F4305B688C
:104428000022C7F89030C7F894204FF000024FF0F0
:104438000003D7E9244529468B00214643EA9173B6
:1044480021468A00D7E92601FBF7BAFE02460B4649
:10445800604BA3FB02235B091C01D7F8FC30002248
:10446800C7F88830C7F88C20D7E9228942464B46DE
:104478009118B9615B41FB61D7E9062341465118A0
:10448800396149464B417B614FF000024FF0000310
:10449800D7E904AB5946CB00514643EA517351461C
:1044A800CA0010461946034642469B18C7F8803092
:1044B8004B460A4642EB0303C7F88430D7F8F4307A
:1044C8005B680022BB67FA674FF000024FF00003F9
:1044D800D7E91E8949468B00414643EA9173414614
:1044E8008A00D7E92001FBF76BFE02460B4611460E
:1044F800384BA3FB01235B09642202FB03F3CB1AAD
:104508001B013233334AA2FB03235B0903F0F00398
:104518001C44D7F8FC3000223B677A67D7E91C892E
:1045280042464B469118B9605B41FB60D7E90223CC
:1045380041465118396049464B417B604FF00002B3
:104548004FF00003D7E900AB5946CB00514643EA88
:1045580051735146CA0010461946034642469B18F5
:10456800BB664B460A4642EB0303FB66D7F8F430BA
:104578005B6800223B667A664FF000024FF000034A
:10458800D7E9188949468B00414643EA9173414669
:104598008A00D7E91A01FBF713FE02460B460D4BBA
:1045A800A3FB02135B09642101FB03F3D31A1B016C
:1045B8003233084AA2FB03235B0903F00F02D7F842
:1045C800F4301B6822449A6000BF07F58077BD4627
:1045D800BDE8B08F1F85EB5180B487B000AF78601D
:1045E80039603B681A687B6853F822303A68126869
:1045F80023F001017B6843F822103B689B68082B75
:1046080002D140237B6101E000237B613B685A684B
:104618007B691A433B689B681A433B68DB681A430B
:104628003B681B691A433B685B691A433B68DB6953
:104638001A433B681B6A1A433B685B6A1A433B6828
:104648009B6A1A433B68DB6A1A433B681B6B13433C
:104658003B613B689B693A6913433B613B68DB6B91
:104668003A6913433B61104BFB60FB6843F480637A
:10467800FB60FB6843F4E023FB603B681A687B68D7
:1046880053F82220FB68DB4302EA03013B681A68FF
:104698003B6919437B6843F82210002318461C37EE
:1046A800BD465DF8047B70477FFB080080B485B089
:1046B80000AFF860B9607A607B685A1CFB6853F8F1
:1046C800223003F04041BB681A68BB685B681B0175
:1046D8001A43BB689B681B021A43BB68DB681B0450
:1046E8001A43BB681B69013B1B051A43BB685B691E
:1046F800023B1B061A43BB689B6913437A68013265
:104708001943FB6843F82210002318461437BD46A6
:104718005DF8047B7047000080B485B000AFF86096
:10472800B9607A603B603B68B3F5804F1DD1FB6888
:104738007A6853F82220134B1340BA681168BA6894
:10474800526812011143BA68926812021143BA689A
:1047580092691143BA68D26812040A4343EA020113
:10476800FB687A6843F8221005E0FB687A686FF006
:10477800704143F82210002318461437BD465DF8EF
:10478800047B70470000F0CF02440346934200D1F7
:10479800704703F8011BF9E770B50D4D0D4C641B0C
:1047A800A4100026A64209D10B4D0C4C00F018F8B5
:1047B800641BA4100026A64205D170BD55F8043B21
:1047C80098470136EEE755F8043B98470136F2E77B
:1047D800204800082048000820480008244800080D
:1047E800F8B500BFF8BC08BC9E467047F8B500BFD6
:0847F800F8BC08BC9E467047A6
:104800000000000000000000010203040607080980
:08481000000000000102030496
:08481800E0B9FF7F0100000080
:04482000AD010008DE
:0448240089010008FE
:1048280000010203FFFF00000024F4001000000054
:04483800010000007B
:0400000508001535A5
:00000001FF
